{
  "contractName": "SC2",
  "abi": [
    {
      "inputs": [
        {
          "internalType": "string",
          "name": "Name",
          "type": "string"
        }
      ],
      "name": "SetName",
      "outputs": [],
      "stateMutability": "nonpayable",
      "type": "function"
    },
    {
      "inputs": [
        {
          "internalType": "string",
          "name": "Title",
          "type": "string"
        }
      ],
      "name": "SetTitle",
      "outputs": [],
      "stateMutability": "nonpayable",
      "type": "function"
    },
    {
      "inputs": [
        {
          "internalType": "uint256",
          "name": "Amount",
          "type": "uint256"
        }
      ],
      "name": "SetAmount",
      "outputs": [],
      "stateMutability": "nonpayable",
      "type": "function"
    },
    {
      "inputs": [
        {
          "internalType": "bytes32",
          "name": "Hash",
          "type": "bytes32"
        }
      ],
      "name": "SetHash",
      "outputs": [],
      "stateMutability": "nonpayable",
      "type": "function"
    }
  ],
  "bytecode": "0x608060405234801561001057600080fd5b506104ab806100206000396000f3fe608060405234801561001057600080fd5b506004361061004c5760003560e01c80634df9dcd314610051578063bea271931461006d578063c882c26f14610089578063ce29006a146100a5575b600080fd5b61006b60048036038101906100669190610306565b6100c1565b005b61008760048036038101906100829190610385565b6100db565b005b6100a3600480360381019061009e9190610306565b6100e5565b005b6100bf60048036038101906100ba91906103e8565b6100ff565b005b80600090805190602001906100d7929190610109565b5050565b8060028190555050565b80600190805190602001906100fb929190610109565b5050565b8060038190555050565b82805461011590610444565b90600052602060002090601f016020900481019282610137576000855561017e565b82601f1061015057805160ff191683800117855561017e565b8280016001018555821561017e579182015b8281111561017d578251825591602001919060010190610162565b5b50905061018b919061018f565b5090565b5b808211156101a8576000816000905550600101610190565b5090565b6000604051905090565b600080fd5b600080fd5b600080fd5b600080fd5b6000601f19601f8301169050919050565b7f4e487b7100000000000000000000000000000000000000000000000000000000600052604160045260246000fd5b610213826101ca565b810181811067ffffffffffffffff82111715610232576102316101db565b5b80604052505050565b60006102456101ac565b9050610251828261020a565b919050565b600067ffffffffffffffff821115610271576102706101db565b5b61027a826101ca565b9050602081019050919050565b82818337600083830152505050565b60006102a96102a484610256565b61023b565b9050828152602081018484840111156102c5576102c46101c5565b5b6102d0848285610287565b509392505050565b600082601f8301126102ed576102ec6101c0565b5b81356102fd848260208601610296565b91505092915050565b60006020828403121561031c5761031b6101b6565b5b600082013567ffffffffffffffff81111561033a576103396101bb565b5b610346848285016102d8565b91505092915050565b6000819050919050565b6103628161034f565b811461036d57600080fd5b50565b60008135905061037f81610359565b92915050565b60006020828403121561039b5761039a6101b6565b5b60006103a984828501610370565b91505092915050565b6000819050919050565b6103c5816103b2565b81146103d057600080fd5b50565b6000813590506103e2816103bc565b92915050565b6000602082840312156103fe576103fd6101b6565b5b600061040c848285016103d3565b91505092915050565b7f4e487b7100000000000000000000000000000000000000000000000000000000600052602260045260246000fd5b6000600282049050600182168061045c57607f821691505b60208210810361046f5761046e610415565b5b5091905056fea26469706673582212207ee9656f543e2b4dcc583047d3ce469ceeb5014c6ed6fb880bbc1b637128b24964736f6c634300080d0033",
  "immutableReferences": {},
  "source": "// SPDX-License-Identifier: MIT\r\npragma solidity ^0.8.4;\r\n\r\ncontract SC2 {\r\n    string name;\r\n    string title;\r\n    uint amount;\r\n    bytes32 hash;\r\n    function SetName(string memory Name) public{\r\n        name=Name;\r\n    }\r\n    function SetTitle(string memory Title) public{\r\n        title=Title;\r\n    }\r\n    function SetAmount(uint Amount) public{\r\n        amount=Amount;\r\n    }\r\n    function SetHash(bytes32 Hash) public{\r\n        hash=Hash;\r\n    }\r\n}",
  "sourcePath": "D:\\c0de\\TRAX\\contracts\\SC2.sol",
  "compiler": {
    "name": "solc",
    "version": "0.8.13+commit.abaa5c0e.Emscripten.clang"
  },
  "schemaVersion": "3.4.7",
  "updatedAt": "2022-05-27T06:22:34.619Z",
  "networkType": "ethereum",
  "devdoc": {
    "kind": "dev",
    "methods": {},
    "version": 1
  },
  "userdoc": {
    "kind": "user",
    "methods": {},
    "version": 1
  }
}